:020000040800F2
:10000000680800203D160008591600085D16000813
:100010006116000865160008691600080000000057
:100020000000000000000000000000006D16000845
:100030007116000800000000751600087916000807
:100040007D1600088116000885160008891600082C
:100050008D160008911600089516000899160008DC
:100060009D160008A1160008A5160008A91600088C
:10007000AD160008B1160008B5160008B91600083C
:10008000BD160008C1160008C5160008C9160008EC
:10009000CD160008D1160008D5160008D91600089C
:1000A000DD160008E1160008E5160008E91600084C
:1000B000ED160008F1160008F5160008F9160008FC
:1000C000FD160008011700080517000809170008A9
:1000D0000D17000811170008151700081917000858
:1000E0001D17000821170008251700082917000808
:1000F0002D170008311700083517000839170008B8
:100100003D17000841170008451700084917000867
:100110004D17000851170008551700085917000817
:100120005D170008611700086517000869170008C7
:1001300080B54FF44661DFF83C0900F030FD4FF424
:100140008861DFF8300900F027FD01BD80B54FF46C
:100150004661DFF8200900F022FD4FF40261DFF86C
:10016000140900F019FD01BD80B54FF44661DFF8B8
:10017000040900F014FD4FF40461DFF8F80800F002
:100180000BFD01BD80B54FF44661DFF8E80800F0D3
:1001900006FD4FF48461DFF8DC0800F0FDFC01BDD2
:1001A00080B50121042000F06AFD0121082000F043
:1001B00066FD0121012000F062FD0121042000F014
:1001C0006EFD0121012000F04AFD01214FF4007075
:1001D00000F055FD01214FF4804000F050FD01BDBD
:1001E00000B58BB0DFF890080090DFF89008019020
:1001F00000200290062003900020049080200590AB
:100200004FF4007006904FF4006007902020089093
:100210004FF40050099000200A906946DFF860080A
:1002200000F05EFD0121DFF8580800F077FD0BB00B
:1002300000BD00B585B00020009001208DF80400BD
:1002400001208DF805005FF46020029000200390EB
:1002500006208DF810006946DFF8280800F06CFDD4
:10026000052301220421DFF81C0800F0CFFD05233F
:1002700002220521DFF80C0800F0C8FD0523032247
:100280000621DFF8000800F0C1FD05230422072144
:10029000DFF8F00700F0BAFD052305220021DFF8A2
:1002A000E40700F0B3FD052306220321DFF8D4079D
:1002B00000F0ACFD0121DFF8CC0700F06FFD01215B
:1002C000DFF8C00700F05DFDDFF8B80700F073FD50
:1002D000DFF8B00700F074FD0028F9D1DFF8A407BB
:1002E00000F078FDDFF89C0700F079FD0028F9D1D7
:1002F0000121DFF8900700F07CFD05B000BD00B5DE
:1003000085B05FF4E13000900020ADF804000020DB
:10031000ADF806000020ADF808000020ADF80C0094
:100320000C20ADF80A006946DFF85C0700F0D4FD48
:100330000121DFF8540700F02FFE05B000BD80B5A5
:1003400040F2FF10ADF8000000208DF80300694670
:10035000DFF8380700F0C0FB4FF40070ADF8000084
:1003600018208DF803006946DFF8200700F0B4FB81
:100370004FF48060ADF8000004208DF8030069465A
:10038000DFF8080700F0A8FB03208DF8020043F611
:100390007F40ADF8000010208DF803006946DFF8BB
:1003A000D40600F099FB4FF48070ADF80000694668
:1003B000DFF8D80600F090FB18208DF803004FF40A
:1003C0004070ADF800006946DFF8A80600F084FB35
:1003D00001BD80B5552148436421B0FBF1F0DFF841
:1003E000B016C880DFF8A816DFF8A80600F06FFE88
:1003F0000121DFF8A00600F0ACFE01BD80B555215B
:1004000048436421B0FBF1F0DFF88416C880DFF8C0
:100410008016DFF8800600F016FE0121DFF8740672
:1004200000F097FE01BD3EB50024DFF86C5608E0F1
:100430000020DFF8681622002B0000F0BFFE040049
:100440000D000020002122002B0000F02BFFEFD137
:10045000FFF7A6FEFFF773FFFFF751FFFFF7C0FEA0
:10046000FFF7E7FE2420ADF800000020ADF8020001
:100470006320ADF804000020ADF806006946DFF8FF
:10048000140600F097FD6020DFF8041608800120B4
:10049000DFF8FC1548806320DFF8F415C8800020E1
:1004A000DFF8EC150881DFF8E815DFF8E80500F063
:1004B0000EFEDFF8DC15DFF8DC0500F0C4FD0121DD
:1004C000DFF8D00500F056FE0121DFF8C80500F086
:1004D00032FE0121DFF8BC0500F03BFEFF21DFF812
:1004E000AC0500F05CFB4FF48461DFF8880500F098
:1004F00053FB5520DFF89815C880DFF89415DFF816
:10050000940500F0A0FD5520DFF88415C880DFF8C1
:100510008015DFF8800500F0DAFDFFF709FE002006
:10052000FFF757FF0020FFF769FF0024DFF8705541
:1005300008E00020DFF8641522002B0000F03EFEEA
:1005400004000D000020002122002B0000F0AAFE74
:10055000EFD14FF44051DFF81C0500F01DFB0020E7
:10056000FFF737FF0020FFF749FFFFF7E1FDDFF856
:100570000C050069B0F5FA7F06D9DFF82805006898
:10058000DFF82415086065E0DFF8F0044069B0F595
:10059000FA7F06D9DFF814050068DFF80C1508604B
:1005A00058E0DFF8D8040068B0F5967F05D8DFF88A
:1005B000CC04C068B0F5967F19D9DFF8C004006894
:1005C000B0F5966F05D8DFF8B404C068B0F5966F43
:1005D00006D9DFF8DC040068DFF8CC14086039E0E5
:1005E000DFF8D0040068DFF8C014086032E0DFF8FC
:1005F0008C044068B0F57A7F06D2DFF8BC0400684E
:10060000DFF8A414086025E0DFF870048068B0F516
:10061000966F19D2DFF864048068B0F5966F06D93A
:10062000DFF898040068DFF88014086012E0DFF853
:100630004C048068B0F5487F0CD9DFF8800400686E
:10064000DFF86414086005E0DFF874040068DFF880
:1006500058140860DFF850040068DFF8581409687F
:10066000884273D1FFF764FDDFF810040068B0F52D
:10067000967F1FD9DFF80404C068B0F5967F19D9BA
:100680006420FFF7A6FE6420FFF7B8FE0024DFF821
:1006900034540020002122002B0000F003FE55D02E
:1006A0000020DFF8F81322002B0000F087FD040083
:1006B0000D00EEE7DFF8C4030068B0F5967F1FD9A0
:1006C000DFF8B803C068B0F5967F19D25020FFF765
:1006D00080FE6420FFF792FE0024DFF8E85300203C
:1006E000002122002B0000F0DDFD2FD00020DFF8DC
:1006F000AC1322002B0000F061FD04000D00EEE7BA
:10070000DFF878030068B0F5967F1FD2DFF86C033E
:10071000C068B0F5967F19D96420FFF75AFE5020C3
:10072000FFF76CFE0024DFF89C5308E00020DFF8A0
:100730006C1322002B0000F041FD04000D0000208E
:10074000002122002B0000F0ADFDEFD1DFF85803AF
:100750000068DFF85C13096888426BD1FFF7E8FC9A
:10076000C6480068B0F5966F1CD9C448C068B0F59B
:10077000966F17D96420FFF72CFE6420FFF73EFE2A
:100780000024D04D0020002122002B0000F08AFD23
:1007900050D00020C14922002B0000F00FFD0400C2
:1007A0000D00EFE7B5480068B0F5966F1ED9B34865
:1007B000C068B0F5966F19D2FFF7D6FC6420FFF73A
:1007C00008FE6420FFF71AFE0024BE4D0020002121
:1007D00022002B0000F066FD2CD00020AF49220043
:1007E0002B0000F0EBFC04000D00EFE7A3480068CD
:1007F000B0F5966F1ED2A148C068B0F5966F19D9B2
:10080000FFF7C0FC6420FFF7E4FD6420FFF7F6FD6E
:100810000024AC4D07E00020A04922002B0000F08E
:10082000CDFC04000D000020002122002B0000F070
:1008300039FDF0D19C480068A3490968884219D164
:10084000FFF7A0FC6420FFF7C4FD0020FFF7D6FDF2
:1008500000249E4D07E00020904922002B0000F06C
:10086000ADFC04000D000020002122002B0000F050
:1008700019FDF0D18C48006895490968884219D162
:10088000FFF772FC0020FFF7A4FD6420FFF7B6FD20
:1008900000248E4D07E00020804922002B0000F04C
:1008A0008DFC04000D000020002122002B0000F030
:1008B000F9FCF0D17C4800687F49096888420DD175
:1008C000FFF752FC05E06420FFF783FD6420FFF78B
:1008D00095FD6A48C068B0F57A7FF4D37248006825
:1008E0007649096888420DD1FFF74CFC05E0642089
:1008F000FFF76FFD6420FFF781FD60480068B0F5E9
:100900007A7FF4D36848006868490968884243D10F
:10091000FFF71CFC59484069B0F5FA7F04D35748EB
:100920000069B0F5FA7F10D20020FFF752FD0020D9
:10093000FFF764FDFFF726FC6420FFF74AFD642003
:10094000FFF75CFD0024634D1FE06420FFF741FDCD
:100950006420FFF753FD00245A4D0020002122009F
:100960002B0000F09FFCD5D000204C4922002B002A
:1009700000F024FC04000D00EFE7002047492200AE
:100980002B0000F01BFC04000D00002000212200C1
:100990002B0000F087FCF0D143480068414909680A
:1009A000884243D1FFF7D2FB34480069B0F5FA7FA3
:1009B00004D332484069B0F5FA7F10D20020FFF727
:1009C00008FD0020FFF71AFDFFF7CEFB6420FFF7BC
:1009D00000FD6420FFF712FD00243E4D1FE064205F
:1009E000FFF7F7FC6420FFF709FD0024354D0020D8
:1009F000002122002B0000F055FCD5D00020274913
:100A000022002B0000F0DAFB04000D00EFE70020CD
:100A1000224922002B0000F0D1FB04000D00002031
:100A2000002122002B0000F03DFCF0D1244800689A
:100A30001D4908601C48006800283FF496ADFFF788
:100A400077FB4620FFF7C5FC4620FFF7D7FC0024C4
:100A50001C4D0020002122002B0000F023FC3FF45D
:100A600084AD00200D4922002B0000F0A7FB0400FC
:100A70000D00EEE7000C01404C2401403C0000203A
:100A800008000240002401400038014000080140F5
:100A9000540000200008004080842E410000F0BF78
:100AA0000088B34018000020240000201C00002013
:100AB0001000002008000020140000200C0000207E
:100AC00020000020006AE84004000020006AF8408E
:100AD00000000020006A084170B4002200250023B5
:100AE000002600240025CA7812F00F02CB78DB061E
:100AF00001D58B781A430B781B0621D0046800239C
:100B000006E0CD78482D02D101259D4005615B1C92
:100B1000082B14D2012515FA03F60D883540B5428D
:100B2000F5D19E000F25B540AC4312FA06F52C43D3
:100B3000CD78282DE5D101259D404561E7E704608A
:100B40000B88FF2B26DD4468002320E0012513F1EC
:100B5000080615FA06F60D883540B54216D19E00F6
:100B60000F25B540AC4312FA06F52C43CD78282D5D
:100B700004D1012513F10806B5404561CD78482D13
:100B800004D1012513F10806B54005615B1C082B53
:100B9000DCD3446070BC704789B20161704789B290
:100BA0004161704700210021002200214449096869
:100BB00011F00C01002904D0042905D0082906D021
:100BC00021E04049016020E03E4901601DE03C49D0
:100BD000096811F470113A4A126812F48032890CD3
:100BE000891C002A03D1384A514301600AE0344A83
:100BF0001268920303D5344A5143016002E0314A3E
:100C00005143016001E02F4901602D49096811F04D
:100C1000F00109092D4A895C0268CA4042602849EE
:100C2000096811F4E061090A284A895C4268CA40EF
:100C300082602349096811F46051C90A234A895C1A
:100C40004268CA40C2601E49096811F44041890BDC
:100C50001F4A895CC268B2FBF1F101617047C9B2F9
:100C6000002905D01B49096808431A49086005E0B6
:100C70001849096831EA0000164908607047C9B28E
:100C8000002905D01449096808431349086005E0A4
:100C90001149096831EA00000F4908607047C9B27C
:100CA000002905D00D49096808430C49086005E092
:100CB0000A49096831EA00000849086070470000E5
:100CC0000410024000127A0000093D0028000020B4
:100CD0003800002014100240181002401C1002407E
:100CE00010B4002202686FF30E128B680C6A234363
:100CF0000C6923434C6923438C692343CC69234308
:100D00004C6A23438C6A23431A430260CA684260D8
:100D10000A6882604968C16010BC7047C9B2002986
:100D200004D0016851F00101016004E001684FF650
:100D3000FE7211400160704730B400220023426807
:100D4000DFF88C4122400C680D7954EA05242243D7
:100D500042608268DFF87C412240CC688D682C4379
:100D60004D7954EA450422438260C26A32F470022B
:100D7000097C491E0B43DBB252EA0352C26230BC0B
:100D80007047C9B2002904D0816851F00101816027
:100D900003E081684908490081607047C9B20029B1
:100DA00004D0816851F48071816003E0816831F47E
:100DB000807181607047816851F0080181607047DF
:100DC00000218068000701D5012100E00021080012
:100DD000C0B27047816851F0040181607047002102
:100DE0008068400701D5012100E000210800C0B261
:100DF0007047C9B2002904D0816851F4A001816014
:100E000003E0816831F4A00181607047F0B40024F0
:100E10000025C9B20A2911DBC4680725B1F10A0609
:100E200003277E43B540AC43DBB2B1F10A0503268C
:100E3000754313FA05F52C43C4600EE004690725D9
:100E4000032606FB01F6B540AC43DBB2032505FBE8
:100E500001F513FA05F52C430461D2B2072A10DA22
:100E6000446B1F23551E0526754313FA05F5AC4345
:100E7000C9B2521E05235A4311FA02F52C434463AA
:100E800024E0D2B20D2A10DA046B1F23D51F0526E9
:100E9000754313FA05F5AC43C9B2D21F05235A4373
:100EA00011FA02F52C43046310E0C46A1F23B2F167
:100EB0000D050526754313FA05F5AC43C9B20D3A85
:100EC00005235A4311FA02F52C43C462F0BC704763
:100ED000FFFEF0FFFDF7F1FF70B586B004000D00D6
:100EE00000200020002100210026A88900282600DB
:100EF000208A4CF6FF710840E98808432082A089C7
:100F00004EF6F3110840A9882A8911436A891143D2
:100F10000843A081A08A4FF6FF410840A9890843F1
:100F2000A0826846FFF73EFE1A48864201D1039828
:100F300000E00298A189090406D5192148432968CF
:100F40004900B0FBF1F105E0192148432968890007
:100F5000B0FBF1F16420B1FBF0F000010209642361
:100F600003FB1211A289120408D5C9003231642290
:100F7000B1FBF2F111F00701084307E0090132313A
:100F80006422B1FBF2F111F00F010843208106B099
:100F900070BD000000380140C9B2002904D0818929
:100FA00051F40051818104E081894DF6FF721140B6
:100FB0008181704700220288DFF8D431984212D034
:100FC000DFF8E43198420ED0B0F1804F0BD0DFF85B
:100FD000C431984207D0DFF8C031984203D0DFF81F
:100FE000BC31984204D14FF68F731A404B881A4394
:100FF000DFF8AC31984208D0DFF8A831984204D02D
:101000004FF6FF431A40CB881A4302808A888285B4
:101010000A880285DFF8782190420FD0DFF8882116
:1010200090420BD0DFF88421904207D0DFF8802176
:10103000904203D0DFF87C21904201D1097A0186E9
:1010400001218182704730B4002300240022028CE9
:101050004FF6FF631A400284048C8288838B4FF61C
:101060008F752B404FF6FC752B400D882B434FF6A8
:10107000FF552C400D8954EA05244D8854EA052477
:10108000DFF80C51A84203D0DFF82C51A84217D149
:101090004FF2FF752C404D8954EA05244FF6FF3579
:1010A0002C408D8854EA05244EF6FF752A404DF6F3
:1010B000FF752A408D8952EA0512CD8952EA051240
:1010C00082808383C9888187048430BC704730B4B0
:1010D000002200230024028C4EF6FF731A40028483
:1010E000038C8488828B48F6FF752A404FF6FF45B3
:1010F0002A400D8852EA05224DF6FF752B400D89D6
:1011000053EA05334D8853EA0533DFF88450A8428B
:1011100003D0DFF8A450A84205D14BF6FF752C4050
:101120008D8954EA851484808283C988A0F8401090
:10113000038430BC7047C9B2002904D0018851F043
:101140000101018004E001884FF6FE721140018028
:101150007047C9B2002906D0B0F8441051F40041DC
:10116000A0F8441005E0B0F844104904490CA0F878
:1011700044107047C9B2002904D0018851F08001A1
:10118000018004E001884FF67F72114001807047B2
:10119000002C01400004004000080040000C00400A
:1011A00000100040001400400034014000400140A5
:1011B000004401400048014000340140F0B44FF0C9
:1011C000004591EA030C44BF6B4000F07BB800BFC0
:1011D000841A71EB030603D2001BB141121973414B
:1011E0004FF4001C1CEB410F34BF7CEB430443E085
:1011F0000C0DA4EB1356352E50DC45EAC323DB0A55
:1012000045EAC121C912B6F120050DDD63FA05F6E4
:10121000EB4086EA0305124218BF45F00105C018ED
:1012200051F100010CD213E062FA06F5F24055408C
:10123000F3415A40B340F3405A408018594107D314
:1012400049085FEA30005FEA350528BF45F001052F
:1012500001F58011420875F1004250F1000041EBA8
:101260000451F0BC4FF4001C1CEB410F38BF704719
:101270000020090D090570471CEB410F10D252EAFE
:1012800043060BD0BCEB410F05D80C0DAB43661EDB
:10129000342EB5DD02E0AB4380185941F0BC7047F5
:1012A000F0BC704790420CD141EA030C50EA4C0C60
:1012B00007D0994205D14FF4001C1CEB410F38BFF9
:1012C00089427047841A71EB030604D26E40001BFA
:1012D000B141121973414FF4001C1CEB410F34BF94
:1012E0007CEB430684E00C0DA4EB1356362E7DDC1C
:1012F000012E43DC45EAC32343EA525312BFD20214
:1013000092025B08240545EAC12141EA5051D2EB23
:10131000C020994125D407D1B0FA80F610FA06F121
:1013200064D00020203608E0B1FA81F6B140C6F161
:10133000200220FA02F21143B0404FEAF474B4EBF9
:10134000465434F001064FEA74040AD8D6F5001664
:10135000760D04F00044F04061FA06F25040F1408E
:101360004840C00A40EA415021F0004128BF5FEAEE
:10137000500550F1000044EBD12137E045EAC3238A
:10138000DB0A45EAC121C90AB6F120050EDD42EAB1
:101390000242120CC5F1200603FA06F6EB4042EABF
:1013A00006056D42984161F100010DE062FA06F513
:1013B000F240554063FA06FC82EA0C02F3405A40C0
:1013C0006D42904161EB030111F4801F05D1641E51
:1013D000620502D06D004041494121F4801143086B
:1013E00075F1004350F1000041EB0451F0BC70472F
:1013F0001CEB410F15D223F0004352EA43060BD0F9
:101400004FEA4C0CBCEB410F04D80C0D661E342E79
:10141000B7DDEBE7801A994150EA410608BF002189
:10142000E4E708BF1CEB430F28BF6FF00001DDE7C6
:1014300080B54E48006850F001004C4908604C48A7
:1014400000684C4908404A490860484800684A49D1
:101450000840464908604548006830F48020434908
:1014600008604348006830F4FE00414908605FF4BA
:101470001F004249086000F005F85FF00060404935
:10148000086001BD80B500F001F801BD82B0002008
:101490000190002000903548006850F480303349B6
:1014A00008603248006810F4003000900198401C39
:1014B00001900098002803D10198B0F5A06FF0D1F9
:1014C0002A480068800302D50120009001E0002036
:1014D00000900098012847D12A48006850F0100079
:1014E000284908602748006880088000254908606E
:1014F0002448006850F00200224908601C48006837
:101500001B4908601A4800681949086018480068B3
:1015100050F48060164908601548006830F47C106B
:10152000134908601248006850F4E8101049086038
:101530000E48006850F080700C4908600B48006845
:101540008001FBD50A4800688008800008490860CF
:101550000748006850F00200054908600448006828
:1015600010F00C000828F9D102B0704700100240BA
:10157000041002400000FFF8FFFFF6FE08100240D2
:1015800008ED00E00020024030B501684268846840
:10159000091801EB5203D20748BF4C440C30994262
:1015A00000D130BD11F9012B11F8015B002A04F8BC
:1015B000015B02D5521CF9D1F1E7521EF4D5EEE7DA
:1015C00010B5074979441831064C7C44163404E0C0
:1015D0000A68081D511888470146A142F8D110BD7C
:1015E0000800000014000000A1FFFFFF80010000C0
:1015F000760000000000002000F00BF8002801D069
:10160000FFF7DEFF0020C046C046FEF70CFF00F0EB
:1016100002F80120704700F001B800000746384684
:1016200000F002F8FBE7000080B5C046C046024A61
:1016300011001820ABBEFBE72600020001488047DE
:1016400001480047311400084D160008C046C04646
:10165000C046C046FFF7D0FFFFF7FEBFFFF7FEBF53
:10166000FFF7FEBFFFF7FEBFFFF7FEBFFFF7FEBFAE
:10167000FFF7FEBFFFF7FEBFFFF7FEBFFFF7FEBF9E
:10168000FFF7FEBFFFF7FEBFFFF7FEBFFFF7FEBF8E
:10169000FFF7FEBFFFF7FEBFFFF7FEBFFFF7FEBF7E
:1016A000FFF7FEBFFFF7FEBFFFF7FEBFFFF7FEBF6E
:1016B000FFF7FEBFFFF7FEBFFFF7FEBFFFF7FEBF5E
:1016C000FFF7FEBFFFF7FEBFFFF7FEBFFFF7FEBF4E
:1016D000FFF7FEBFFFF7FEBFFFF7FEBFFFF7FEBF3E
:1016E000FFF7FEBFFFF7FEBFFFF7FEBFFFF7FEBF2E
:1016F000FFF7FEBFFFF7FEBFFFF7FEBFFFF7FEBF1E
:10170000FFF7FEBFFFF7FEBFFFF7FEBFFFF7FEBF0D
:10171000FFF7FEBFFFF7FEBFFFF7FEBFFFF7FEBFFD
:10172000FFF7FEBFFFF7FEBFFFF7FEBFFFF7FEBFED
:10173000FFF7FEBFFFF7FEBFFFF7FEBFFFF7FEBFDD
:10174000FFF7FEBFFFF7FEBFFFF7FEBFFFF7FEBFCD
:10175000FFF7FEBFFFF7FEBFFFF7FEBFFFF7FEBFBD
:10176000FFF7FEBFFFF7FEBFFFF7FEBF0001FD0062
:101770000002FD000003FD00000DFD00000EFD0055
:10178000000FFD000005FD000006FD00000AFD0041
:10179000000DF9000F01020304010203040607080B
:0717A0000902040608D8004D
:040000050800164D8C
:00000001FF
